{
  "_format": "hh-sol-artifact-1",
  "contractName": "mintingDapp",
  "sourceName": "contracts/testnft.sol",
  "abi": [
    {
      "inputs": [],
      "stateMutability": "nonpayable",
      "type": "constructor"
    },
    {
      "inputs": [],
      "name": "ApprovalCallerNotOwnerNorApproved",
      "type": "error"
    },
    {
      "inputs": [],
      "name": "ApprovalQueryForNonexistentToken",
      "type": "error"
    },
    {
      "inputs": [],
      "name": "ApprovalToCurrentOwner",
      "type": "error"
    },
    {
      "inputs": [],
      "name": "ApproveToCaller",
      "type": "error"
    },
    {
      "inputs": [],
      "name": "BalanceQueryForZeroAddress",
      "type": "error"
    },
    {
      "inputs": [],
      "name": "MintToZeroAddress",
      "type": "error"
    },
    {
      "inputs": [],
      "name": "MintZeroQuantity",
      "type": "error"
    },
    {
      "inputs": [],
      "name": "OwnerQueryForNonexistentToken",
      "type": "error"
    },
    {
      "inputs": [],
      "name": "TransferCallerNotOwnerNorApproved",
      "type": "error"
    },
    {
      "inputs": [],
      "name": "TransferFromIncorrectOwner",
      "type": "error"
    },
    {
      "inputs": [],
      "name": "TransferToNonERC721ReceiverImplementer",
      "type": "error"
    },
    {
      "inputs": [],
      "name": "TransferToZeroAddress",
      "type": "error"
    },
    {
      "inputs": [],
      "name": "URIQueryForNonexistentToken",
      "type": "error"
    },
    {
      "anonymous": false,
      "inputs": [
        {
          "indexed": true,
          "internalType": "address",
          "name": "owner",
          "type": "address"
        },
        {
          "indexed": true,
          "internalType": "address",
          "name": "approved",
          "type": "address"
        },
        {
          "indexed": true,
          "internalType": "uint256",
          "name": "tokenId",
          "type": "uint256"
        }
      ],
      "name": "Approval",
      "type": "event"
    },
    {
      "anonymous": false,
      "inputs": [
        {
          "indexed": true,
          "internalType": "address",
          "name": "owner",
          "type": "address"
        },
        {
          "indexed": true,
          "internalType": "address",
          "name": "operator",
          "type": "address"
        },
        {
          "indexed": false,
          "internalType": "bool",
          "name": "approved",
          "type": "bool"
        }
      ],
      "name": "ApprovalForAll",
      "type": "event"
    },
    {
      "anonymous": false,
      "inputs": [
        {
          "indexed": true,
          "internalType": "address",
          "name": "previousOwner",
          "type": "address"
        },
        {
          "indexed": true,
          "internalType": "address",
          "name": "newOwner",
          "type": "address"
        }
      ],
      "name": "OwnershipTransferred",
      "type": "event"
    },
    {
      "anonymous": false,
      "inputs": [
        {
          "indexed": true,
          "internalType": "address",
          "name": "from",
          "type": "address"
        },
        {
          "indexed": true,
          "internalType": "address",
          "name": "to",
          "type": "address"
        },
        {
          "indexed": true,
          "internalType": "uint256",
          "name": "tokenId",
          "type": "uint256"
        }
      ],
      "name": "Transfer",
      "type": "event"
    },
    {
      "inputs": [
        {
          "internalType": "address",
          "name": "to",
          "type": "address"
        },
        {
          "internalType": "uint256",
          "name": "tokenId",
          "type": "uint256"
        }
      ],
      "name": "approve",
      "outputs": [],
      "stateMutability": "nonpayable",
      "type": "function"
    },
    {
      "inputs": [
        {
          "internalType": "address",
          "name": "owner",
          "type": "address"
        }
      ],
      "name": "balanceOf",
      "outputs": [
        {
          "internalType": "uint256",
          "name": "",
          "type": "uint256"
        }
      ],
      "stateMutability": "view",
      "type": "function"
    },
    {
      "inputs": [
        {
          "internalType": "address",
          "name": "",
          "type": "address"
        }
      ],
      "name": "freeMint",
      "outputs": [
        {
          "internalType": "uint256",
          "name": "",
          "type": "uint256"
        }
      ],
      "stateMutability": "view",
      "type": "function"
    },
    {
      "inputs": [],
      "name": "freeMintAmount",
      "outputs": [
        {
          "internalType": "uint256",
          "name": "",
          "type": "uint256"
        }
      ],
      "stateMutability": "view",
      "type": "function"
    },
    {
      "inputs": [],
      "name": "freeSale",
      "outputs": [
        {
          "internalType": "bool",
          "name": "",
          "type": "bool"
        }
      ],
      "stateMutability": "view",
      "type": "function"
    },
    {
      "inputs": [
        {
          "internalType": "uint256",
          "name": "tokenId",
          "type": "uint256"
        }
      ],
      "name": "getApproved",
      "outputs": [
        {
          "internalType": "address",
          "name": "",
          "type": "address"
        }
      ],
      "stateMutability": "view",
      "type": "function"
    },
    {
      "inputs": [
        {
          "internalType": "address",
          "name": "owner",
          "type": "address"
        },
        {
          "internalType": "address",
          "name": "operator",
          "type": "address"
        }
      ],
      "name": "isApprovedForAll",
      "outputs": [
        {
          "internalType": "bool",
          "name": "",
          "type": "bool"
        }
      ],
      "stateMutability": "view",
      "type": "function"
    },
    {
      "inputs": [],
      "name": "maxPerTXN",
      "outputs": [
        {
          "internalType": "uint256",
          "name": "",
          "type": "uint256"
        }
      ],
      "stateMutability": "view",
      "type": "function"
    },
    {
      "inputs": [],
      "name": "maxSupply",
      "outputs": [
        {
          "internalType": "uint256",
          "name": "",
          "type": "uint256"
        }
      ],
      "stateMutability": "view",
      "type": "function"
    },
    {
      "inputs": [],
      "name": "mintCost",
      "outputs": [
        {
          "internalType": "uint256",
          "name": "",
          "type": "uint256"
        }
      ],
      "stateMutability": "view",
      "type": "function"
    },
    {
      "inputs": [
        {
          "internalType": "bytes32[]",
          "name": "proof",
          "type": "bytes32[]"
        }
      ],
      "name": "mintFree",
      "outputs": [],
      "stateMutability": "nonpayable",
      "type": "function"
    },
    {
      "inputs": [
        {
          "internalType": "uint256",
          "name": "_amount",
          "type": "uint256"
        }
      ],
      "name": "mintPublic",
      "outputs": [],
      "stateMutability": "payable",
      "type": "function"
    },
    {
      "inputs": [],
      "name": "name",
      "outputs": [
        {
          "internalType": "string",
          "name": "",
          "type": "string"
        }
      ],
      "stateMutability": "view",
      "type": "function"
    },
    {
      "inputs": [],
      "name": "owner",
      "outputs": [
        {
          "internalType": "address",
          "name": "",
          "type": "address"
        }
      ],
      "stateMutability": "view",
      "type": "function"
    },
    {
      "inputs": [
        {
          "internalType": "uint256",
          "name": "tokenId",
          "type": "uint256"
        }
      ],
      "name": "ownerOf",
      "outputs": [
        {
          "internalType": "address",
          "name": "",
          "type": "address"
        }
      ],
      "stateMutability": "view",
      "type": "function"
    },
    {
      "inputs": [],
      "name": "publicSale",
      "outputs": [
        {
          "internalType": "bool",
          "name": "",
          "type": "bool"
        }
      ],
      "stateMutability": "view",
      "type": "function"
    },
    {
      "inputs": [],
      "name": "renounceOwnership",
      "outputs": [],
      "stateMutability": "nonpayable",
      "type": "function"
    },
    {
      "inputs": [
        {
          "internalType": "address",
          "name": "from",
          "type": "address"
        },
        {
          "internalType": "address",
          "name": "to",
          "type": "address"
        },
        {
          "internalType": "uint256",
          "name": "tokenId",
          "type": "uint256"
        }
      ],
      "name": "safeTransferFrom",
      "outputs": [],
      "stateMutability": "nonpayable",
      "type": "function"
    },
    {
      "inputs": [
        {
          "internalType": "address",
          "name": "from",
          "type": "address"
        },
        {
          "internalType": "address",
          "name": "to",
          "type": "address"
        },
        {
          "internalType": "uint256",
          "name": "tokenId",
          "type": "uint256"
        },
        {
          "internalType": "bytes",
          "name": "_data",
          "type": "bytes"
        }
      ],
      "name": "safeTransferFrom",
      "outputs": [],
      "stateMutability": "nonpayable",
      "type": "function"
    },
    {
      "inputs": [
        {
          "internalType": "address",
          "name": "operator",
          "type": "address"
        },
        {
          "internalType": "bool",
          "name": "approved",
          "type": "bool"
        }
      ],
      "name": "setApprovalForAll",
      "outputs": [],
      "stateMutability": "nonpayable",
      "type": "function"
    },
    {
      "inputs": [
        {
          "internalType": "uint256",
          "name": "newCost",
          "type": "uint256"
        }
      ],
      "name": "setCost",
      "outputs": [],
      "stateMutability": "nonpayable",
      "type": "function"
    },
    {
      "inputs": [
        {
          "internalType": "uint256",
          "name": "_maxTXN",
          "type": "uint256"
        }
      ],
      "name": "setMaxPerTXN",
      "outputs": [],
      "stateMutability": "nonpayable",
      "type": "function"
    },
    {
      "inputs": [
        {
          "internalType": "uint256",
          "name": "_newSupply",
          "type": "uint256"
        }
      ],
      "name": "setMaxSupply",
      "outputs": [],
      "stateMutability": "nonpayable",
      "type": "function"
    },
    {
      "inputs": [
        {
          "internalType": "string",
          "name": "newUri",
          "type": "string"
        }
      ],
      "name": "setMetadata",
      "outputs": [],
      "stateMutability": "nonpayable",
      "type": "function"
    },
    {
      "inputs": [
        {
          "internalType": "bytes32",
          "name": "_root",
          "type": "bytes32"
        }
      ],
      "name": "setRoot",
      "outputs": [],
      "stateMutability": "nonpayable",
      "type": "function"
    },
    {
      "inputs": [
        {
          "internalType": "bytes4",
          "name": "interfaceId",
          "type": "bytes4"
        }
      ],
      "name": "supportsInterface",
      "outputs": [
        {
          "internalType": "bool",
          "name": "",
          "type": "bool"
        }
      ],
      "stateMutability": "view",
      "type": "function"
    },
    {
      "inputs": [],
      "name": "symbol",
      "outputs": [
        {
          "internalType": "string",
          "name": "",
          "type": "string"
        }
      ],
      "stateMutability": "view",
      "type": "function"
    },
    {
      "inputs": [],
      "name": "toggleFree",
      "outputs": [],
      "stateMutability": "nonpayable",
      "type": "function"
    },
    {
      "inputs": [],
      "name": "togglePublic",
      "outputs": [],
      "stateMutability": "nonpayable",
      "type": "function"
    },
    {
      "inputs": [
        {
          "internalType": "uint256",
          "name": "_tokenId",
          "type": "uint256"
        }
      ],
      "name": "tokenURI",
      "outputs": [
        {
          "internalType": "string",
          "name": "",
          "type": "string"
        }
      ],
      "stateMutability": "view",
      "type": "function"
    },
    {
      "inputs": [],
      "name": "totalSupply",
      "outputs": [
        {
          "internalType": "uint256",
          "name": "",
          "type": "uint256"
        }
      ],
      "stateMutability": "view",
      "type": "function"
    },
    {
      "inputs": [
        {
          "internalType": "address",
          "name": "from",
          "type": "address"
        },
        {
          "internalType": "address",
          "name": "to",
          "type": "address"
        },
        {
          "internalType": "uint256",
          "name": "tokenId",
          "type": "uint256"
        }
      ],
      "name": "transferFrom",
      "outputs": [],
      "stateMutability": "nonpayable",
      "type": "function"
    },
    {
      "inputs": [],
      "name": "transferFunds",
      "outputs": [],
      "stateMutability": "nonpayable",
      "type": "function"
    },
    {
      "inputs": [
        {
          "internalType": "address",
          "name": "newOwner",
          "type": "address"
        }
      ],
      "name": "transferOwnership",
      "outputs": [],
      "stateMutability": "nonpayable",
      "type": "function"
    }
  ],
  "bytecode": "0x6080604052661b5b1bf4c54000600c556115b3600d556001600e55600a600f556000601060006101000a81548160ff0219169083151502179055506000601060016101000a81548160ff0219169083151502179055503480156200006257600080fd5b506040518060400160405280600b81526020017f6d696e74696e67446170700000000000000000000000000000000000000000008152506040518060400160405280600381526020017f4d444100000000000000000000000000000000000000000000000000000000008152508160029080519060200190620000e79291906200021e565b508060039080519060200190620001009291906200021e565b50620001116200014760201b60201c565b6000819055505050620001396200012d6200015060201b60201c565b6200015860201b60201c565b600160098190555062000333565b60006001905090565b600033905090565b6000600860009054906101000a900473ffffffffffffffffffffffffffffffffffffffff16905081600860006101000a81548173ffffffffffffffffffffffffffffffffffffffff021916908373ffffffffffffffffffffffffffffffffffffffff1602179055508173ffffffffffffffffffffffffffffffffffffffff168173ffffffffffffffffffffffffffffffffffffffff167f8be0079c531659141344cd1fd0a4f28419497f9722a3daafe3b4186f6b6457e060405160405180910390a35050565b8280546200022c90620002fd565b90600052602060002090601f0160209004810192826200025057600085556200029c565b82601f106200026b57805160ff19168380011785556200029c565b828001600101855582156200029c579182015b828111156200029b5782518255916020019190600101906200027e565b5b509050620002ab9190620002af565b5090565b5b80821115620002ca576000816000905550600101620002b0565b5090565b7f4e487b7100000000000000000000000000000000000000000000000000000000600052602260045260246000fd5b600060028204905060018216806200031657607f821691505b602082108114156200032d576200032c620002ce565b5b50919050565b613add80620003436000396000f3fe6080604052600436106101f95760003560e01c80638da5cb5b1161010d578063b88d4fde116100a0578063dab5f3401161006f578063dab5f340146106d3578063e985e9c5146106fc578063efd0cbf914610739578063f2fde38b14610755578063fa07ce1d1461077e576101f9565b8063b88d4fde14610617578063bdb4b84814610640578063c87b56dd1461066b578063d5abeb01146106a8576101f9565b8063a22cb465116100dc578063a22cb46514610583578063a49a1e7d146105ac578063a4b41a15146105d5578063b0cad7b614610600576101f9565b80638da5cb5b146104ed57806395d89b4114610518578063981d877114610543578063a09310111461055a576101f9565b80633a467e3d116101905780636352211e1161015f5780636352211e1461040a5780636f8b44b01461044757806370a0823114610470578063715018a6146104ad57806376c7d8ca146104c4576101f9565b80633a467e3d146103765780633c68eb81146103a157806342842e0e146103b857806344a0d68a146103e1576101f9565b806318160ddd116101cc57806318160ddd146102cc5780631e4a6b10146102f757806323b872dd1461032257806333bc1c5c1461034b576101f9565b806301ffc9a7146101fe57806306fdde031461023b578063081812fc14610266578063095ea7b3146102a3575b600080fd5b34801561020a57600080fd5b506102256004803603810190610220919061287f565b6107bb565b60405161023291906128c7565b60405180910390f35b34801561024757600080fd5b5061025061084d565b60405161025d919061297b565b60405180910390f35b34801561027257600080fd5b5061028d600480360381019061028891906129d3565b6108df565b60405161029a9190612a41565b60405180910390f35b3480156102af57600080fd5b506102ca60048036038101906102c59190612a88565b61095b565b005b3480156102d857600080fd5b506102e1610b02565b6040516102ee9190612ad7565b60405180910390f35b34801561030357600080fd5b5061030c610b19565b6040516103199190612ad7565b60405180910390f35b34801561032e57600080fd5b5061034960048036038101906103449190612af2565b610b1f565b005b34801561035757600080fd5b50610360610b2f565b60405161036d91906128c7565b60405180910390f35b34801561038257600080fd5b5061038b610b42565b6040516103989190612ad7565b60405180910390f35b3480156103ad57600080fd5b506103b6610b48565b005b3480156103c457600080fd5b506103df60048036038101906103da9190612af2565b610c3d565b005b3480156103ed57600080fd5b50610408600480360381019061040391906129d3565b610c5d565b005b34801561041657600080fd5b50610431600480360381019061042c91906129d3565b610ce3565b60405161043e9190612a41565b60405180910390f35b34801561045357600080fd5b5061046e600480360381019061046991906129d3565b610cf5565b005b34801561047c57600080fd5b5061049760048036038101906104929190612b45565b610d7b565b6040516104a49190612ad7565b60405180910390f35b3480156104b957600080fd5b506104c2610e34565b005b3480156104d057600080fd5b506104eb60048036038101906104e69190612cf0565b610ebc565b005b3480156104f957600080fd5b50610502611115565b60405161050f9190612a41565b60405180910390f35b34801561052457600080fd5b5061052d61113f565b60405161053a919061297b565b60405180910390f35b34801561054f57600080fd5b506105586111d1565b005b34801561056657600080fd5b50610581600480360381019061057c91906129d3565b611279565b005b34801561058f57600080fd5b506105aa60048036038101906105a59190612d65565b6112ff565b005b3480156105b857600080fd5b506105d360048036038101906105ce9190612e00565b611477565b005b3480156105e157600080fd5b506105ea611509565b6040516105f791906128c7565b60405180910390f35b34801561060c57600080fd5b5061061561151c565b005b34801561062357600080fd5b5061063e60048036038101906106399190612f02565b6115c4565b005b34801561064c57600080fd5b50610655611637565b6040516106629190612ad7565b60405180910390f35b34801561067757600080fd5b50610692600480360381019061068d91906129d3565b61163d565b60405161069f919061297b565b60405180910390f35b3480156106b457600080fd5b506106bd6116e4565b6040516106ca9190612ad7565b60405180910390f35b3480156106df57600080fd5b506106fa60048036038101906106f59190612f85565b6116ea565b005b34801561070857600080fd5b50610723600480360381019061071e9190612fb2565b611770565b60405161073091906128c7565b60405180910390f35b610753600480360381019061074e91906129d3565b611804565b005b34801561076157600080fd5b5061077c60048036038101906107779190612b45565b6119ae565b005b34801561078a57600080fd5b506107a560048036038101906107a09190612b45565b611aa6565b6040516107b29190612ad7565b60405180910390f35b60006301ffc9a760e01b827bffffffffffffffffffffffffffffffffffffffffffffffffffffffff1916148061081657506380ac58cd60e01b827bffffffffffffffffffffffffffffffffffffffffffffffffffffffff1916145b806108465750635b5e139f60e01b827bffffffffffffffffffffffffffffffffffffffffffffffffffffffff1916145b9050919050565b60606002805461085c90613021565b80601f016020809104026020016040519081016040528092919081815260200182805461088890613021565b80156108d55780601f106108aa576101008083540402835291602001916108d5565b820191906000526020600020905b8154815290600101906020018083116108b857829003601f168201915b5050505050905090565b60006108ea82611abe565b610920576040517fcf4700e400000000000000000000000000000000000000000000000000000000815260040160405180910390fd5b6006600083815260200190815260200160002060009054906101000a900473ffffffffffffffffffffffffffffffffffffffff169050919050565b600061096682611b1d565b90508073ffffffffffffffffffffffffffffffffffffffff168373ffffffffffffffffffffffffffffffffffffffff1614156109ce576040517f943f7b8c00000000000000000000000000000000000000000000000000000000815260040160405180910390fd5b8073ffffffffffffffffffffffffffffffffffffffff166109ed611beb565b73ffffffffffffffffffffffffffffffffffffffff1614610a5057610a1981610a14611beb565b611770565b610a4f576040517fcfb3b94200000000000000000000000000000000000000000000000000000000815260040160405180910390fd5b5b826006600084815260200190815260200160002060006101000a81548173ffffffffffffffffffffffffffffffffffffffff021916908373ffffffffffffffffffffffffffffffffffffffff160217905550818373ffffffffffffffffffffffffffffffffffffffff168273ffffffffffffffffffffffffffffffffffffffff167f8c5be1e5ebec7d5bd14f71427d1e84f3dd0314c0f7b2291e5b200ac8c7c3b92560405160405180910390a4505050565b6000610b0c611bf3565b6001546000540303905090565b600f5481565b610b2a838383611bfc565b505050565b601060019054906101000a900460ff1681565b600e5481565b610b50611fa6565b73ffffffffffffffffffffffffffffffffffffffff16610b6e611115565b73ffffffffffffffffffffffffffffffffffffffff1614610bc4576040517f08c379a0000000000000000000000000000000000000000000000000000000008152600401610bbb9061309f565b60405180910390fd5b60003373ffffffffffffffffffffffffffffffffffffffff1647604051610bea906130f0565b60006040518083038185875af1925050503d8060008114610c27576040519150601f19603f3d011682016040523d82523d6000602084013e610c2c565b606091505b5050905080610c3a57600080fd5b50565b610c58838383604051806020016040528060008152506115c4565b505050565b610c65611fa6565b73ffffffffffffffffffffffffffffffffffffffff16610c83611115565b73ffffffffffffffffffffffffffffffffffffffff1614610cd9576040517f08c379a0000000000000000000000000000000000000000000000000000000008152600401610cd09061309f565b60405180910390fd5b80600c8190555050565b6000610cee82611b1d565b9050919050565b610cfd611fa6565b73ffffffffffffffffffffffffffffffffffffffff16610d1b611115565b73ffffffffffffffffffffffffffffffffffffffff1614610d71576040517f08c379a0000000000000000000000000000000000000000000000000000000008152600401610d689061309f565b60405180910390fd5b80600d8190555050565b60008073ffffffffffffffffffffffffffffffffffffffff168273ffffffffffffffffffffffffffffffffffffffff161415610de3576040517f8f4eb60400000000000000000000000000000000000000000000000000000000815260040160405180910390fd5b67ffffffffffffffff600560008473ffffffffffffffffffffffffffffffffffffffff1673ffffffffffffffffffffffffffffffffffffffff16815260200190815260200160002054169050919050565b610e3c611fa6565b73ffffffffffffffffffffffffffffffffffffffff16610e5a611115565b73ffffffffffffffffffffffffffffffffffffffff1614610eb0576040517f08c379a0000000000000000000000000000000000000000000000000000000008152600401610ea79061309f565b60405180910390fd5b610eba6000611fae565b565b60026009541415610f02576040517f08c379a0000000000000000000000000000000000000000000000000000000008152600401610ef990613151565b60405180910390fd5b6002600981905550601060009054906101000a900460ff16610f59576040517f08c379a0000000000000000000000000000000000000000000000000000000008152600401610f50906131bd565b60405180910390fd5b610f8c8160115433604051602001610f719190613225565b60405160208183030381529060405280519060200120612074565b610fcb576040517f08c379a0000000000000000000000000000000000000000000000000000000008152600401610fc29061328c565b60405180910390fd5b6001600a60003373ffffffffffffffffffffffffffffffffffffffff1673ffffffffffffffffffffffffffffffffffffffff168152602001908152602001600020541061104d576040517f08c379a00000000000000000000000000000000000000000000000000000000081526004016110449061331e565b60405180910390fd5b600d54600e5461105b610b02565b611065919061336d565b11156110a6576040517f08c379a000000000000000000000000000000000000000000000000000000000815260040161109d90613435565b60405180910390fd5b600e54600a60003373ffffffffffffffffffffffffffffffffffffffff1673ffffffffffffffffffffffffffffffffffffffff16815260200190815260200160002060008282546110f7919061336d565b9250508190555061110a33600e5461212a565b600160098190555050565b6000600860009054906101000a900473ffffffffffffffffffffffffffffffffffffffff16905090565b60606003805461114e90613021565b80601f016020809104026020016040519081016040528092919081815260200182805461117a90613021565b80156111c75780601f1061119c576101008083540402835291602001916111c7565b820191906000526020600020905b8154815290600101906020018083116111aa57829003601f168201915b5050505050905090565b6111d9611fa6565b73ffffffffffffffffffffffffffffffffffffffff166111f7611115565b73ffffffffffffffffffffffffffffffffffffffff161461124d576040517f08c379a00000000000000000000000000000000000000000000000000000000081526004016112449061309f565b60405180910390fd5b601060019054906101000a900460ff1615601060016101000a81548160ff021916908315150217905550565b611281611fa6565b73ffffffffffffffffffffffffffffffffffffffff1661129f611115565b73ffffffffffffffffffffffffffffffffffffffff16146112f5576040517f08c379a00000000000000000000000000000000000000000000000000000000081526004016112ec9061309f565b60405180910390fd5b80600f8190555050565b611307611beb565b73ffffffffffffffffffffffffffffffffffffffff168273ffffffffffffffffffffffffffffffffffffffff16141561136c576040517fb06307db00000000000000000000000000000000000000000000000000000000815260040160405180910390fd5b8060076000611379611beb565b73ffffffffffffffffffffffffffffffffffffffff1673ffffffffffffffffffffffffffffffffffffffff16815260200190815260200160002060008473ffffffffffffffffffffffffffffffffffffffff1673ffffffffffffffffffffffffffffffffffffffff16815260200190815260200160002060006101000a81548160ff0219169083151502179055508173ffffffffffffffffffffffffffffffffffffffff16611426611beb565b73ffffffffffffffffffffffffffffffffffffffff167f17307eab39ab6107e8899845ad3d59bd9653f200f220920489ca2b5937696c318360405161146b91906128c7565b60405180910390a35050565b61147f611fa6565b73ffffffffffffffffffffffffffffffffffffffff1661149d611115565b73ffffffffffffffffffffffffffffffffffffffff16146114f3576040517f08c379a00000000000000000000000000000000000000000000000000000000081526004016114ea9061309f565b60405180910390fd5b8181600b9190611504929190612770565b505050565b601060009054906101000a900460ff1681565b611524611fa6565b73ffffffffffffffffffffffffffffffffffffffff16611542611115565b73ffffffffffffffffffffffffffffffffffffffff1614611598576040517f08c379a000000000000000000000000000000000000000000000000000000000815260040161158f9061309f565b60405180910390fd5b601060009054906101000a900460ff1615601060006101000a81548160ff021916908315150217905550565b6115cf848484611bfc565b60008373ffffffffffffffffffffffffffffffffffffffff163b14611631576115fa84848484612148565b611630576040517fd1a57ed600000000000000000000000000000000000000000000000000000000815260040160405180910390fd5b5b50505050565b600c5481565b606061164882611abe565b611687576040517f08c379a000000000000000000000000000000000000000000000000000000000815260040161167e906134c7565b60405180910390fd5b60006116916122a8565b905060008151116116b157604051806020016040528060008152506116dc565b806116bb8461233a565b6040516020016116cc92919061356f565b6040516020818303038152906040525b915050919050565b600d5481565b6116f2611fa6565b73ffffffffffffffffffffffffffffffffffffffff16611710611115565b73ffffffffffffffffffffffffffffffffffffffff1614611766576040517f08c379a000000000000000000000000000000000000000000000000000000000815260040161175d9061309f565b60405180910390fd5b8060118190555050565b6000600760008473ffffffffffffffffffffffffffffffffffffffff1673ffffffffffffffffffffffffffffffffffffffff16815260200190815260200160002060008373ffffffffffffffffffffffffffffffffffffffff1673ffffffffffffffffffffffffffffffffffffffff16815260200190815260200160002060009054906101000a900460ff16905092915050565b6002600954141561184a576040517f08c379a000000000000000000000000000000000000000000000000000000000815260040161184190613151565b60405180910390fd5b6002600981905550601060019054906101000a900460ff166118a1576040517f08c379a0000000000000000000000000000000000000000000000000000000008152600401611898906135ea565b60405180910390fd5b600f5481111580156118b35750600081115b6118f2576040517f08c379a00000000000000000000000000000000000000000000000000000000081526004016118e990613656565b60405180910390fd5b600d546118fd610b02565b82611908919061336d565b1115611949576040517f08c379a0000000000000000000000000000000000000000000000000000000008152600401611940906136c2565b60405180910390fd5b80600c5461195791906136e2565b341015611999576040517f08c379a000000000000000000000000000000000000000000000000000000000815260040161199090613788565b60405180910390fd5b6119a3338261212a565b600160098190555050565b6119b6611fa6565b73ffffffffffffffffffffffffffffffffffffffff166119d4611115565b73ffffffffffffffffffffffffffffffffffffffff1614611a2a576040517f08c379a0000000000000000000000000000000000000000000000000000000008152600401611a219061309f565b60405180910390fd5b600073ffffffffffffffffffffffffffffffffffffffff168173ffffffffffffffffffffffffffffffffffffffff161415611a9a576040517f08c379a0000000000000000000000000000000000000000000000000000000008152600401611a919061381a565b60405180910390fd5b611aa381611fae565b50565b600a6020528060005260406000206000915090505481565b600081611ac9611bf3565b11158015611ad8575060005482105b8015611b16575060007c0100000000000000000000000000000000000000000000000000000000600460008581526020019081526020016000205416145b9050919050565b60008082905080611b2c611bf3565b11611bb457600054811015611bb35760006004600083815260200190815260200160002054905060007c010000000000000000000000000000000000000000000000000000000082161415611bb1575b6000811415611ba7576004600083600190039350838152602001908152602001600020549050611b7c565b8092505050611be6565b505b5b6040517fdf2d9b4200000000000000000000000000000000000000000000000000000000815260040160405180910390fd5b919050565b600033905090565b60006001905090565b6000611c0782611b1d565b90508373ffffffffffffffffffffffffffffffffffffffff168173ffffffffffffffffffffffffffffffffffffffff1614611c6e576040517fa114810000000000000000000000000000000000000000000000000000000000815260040160405180910390fd5b60008473ffffffffffffffffffffffffffffffffffffffff16611c8f611beb565b73ffffffffffffffffffffffffffffffffffffffff161480611cbe5750611cbd85611cb8611beb565b611770565b5b80611d035750611ccc611beb565b73ffffffffffffffffffffffffffffffffffffffff16611ceb846108df565b73ffffffffffffffffffffffffffffffffffffffff16145b905080611d3c576040517f59c896be00000000000000000000000000000000000000000000000000000000815260040160405180910390fd5b600073ffffffffffffffffffffffffffffffffffffffff168473ffffffffffffffffffffffffffffffffffffffff161415611da3576040517fea553b3400000000000000000000000000000000000000000000000000000000815260040160405180910390fd5b611db0858585600161249b565b6006600084815260200190815260200160002060006101000a81549073ffffffffffffffffffffffffffffffffffffffff0219169055600560008673ffffffffffffffffffffffffffffffffffffffff1673ffffffffffffffffffffffffffffffffffffffff168152602001908152602001600020600081546001900391905081905550600560008573ffffffffffffffffffffffffffffffffffffffff1673ffffffffffffffffffffffffffffffffffffffff16815260200190815260200160002060008154600101919050819055507c020000000000000000000000000000000000000000000000000000000060a042901b611ead866124a1565b1717600460008581526020019081526020016000208190555060007c020000000000000000000000000000000000000000000000000000000083161415611f37576000600184019050600060046000838152602001908152602001600020541415611f35576000548114611f34578260046000838152602001908152602001600020819055505b5b505b828473ffffffffffffffffffffffffffffffffffffffff168673ffffffffffffffffffffffffffffffffffffffff167fddf252ad1be2c89b69c2b068fc378daa952ba7f163c4a11628f55a4df523b3ef60405160405180910390a4611f9f85858560016124ab565b5050505050565b600033905090565b6000600860009054906101000a900473ffffffffffffffffffffffffffffffffffffffff16905081600860006101000a81548173ffffffffffffffffffffffffffffffffffffffff021916908373ffffffffffffffffffffffffffffffffffffffff1602179055508173ffffffffffffffffffffffffffffffffffffffff168173ffffffffffffffffffffffffffffffffffffffff167f8be0079c531659141344cd1fd0a4f28419497f9722a3daafe3b4186f6b6457e060405160405180910390a35050565b60008082905060005b855181101561211c57600086828151811061209b5761209a61383a565b5b602002602001015190508083116120dc5782816040516020016120bf92919061388a565b604051602081830303815290604052805190602001209250612108565b80836040516020016120ef92919061388a565b6040516020818303038152906040528051906020012092505b508080612114906138b6565b91505061207d565b508381149150509392505050565b6121448282604051806020016040528060008152506124b1565b5050565b60008373ffffffffffffffffffffffffffffffffffffffff1663150b7a0261216e611beb565b8786866040518563ffffffff1660e01b81526004016121909493929190613954565b602060405180830381600087803b1580156121aa57600080fd5b505af19250505080156121db57506040513d601f19601f820116820180604052508101906121d891906139b5565b60015b612255573d806000811461220b576040519150601f19603f3d011682016040523d82523d6000602084013e612210565b606091505b5060008151141561224d576040517fd1a57ed600000000000000000000000000000000000000000000000000000000815260040160405180910390fd5b805181602001fd5b63150b7a0260e01b7bffffffffffffffffffffffffffffffffffffffffffffffffffffffff1916817bffffffffffffffffffffffffffffffffffffffffffffffffffffffff191614915050949350505050565b6060600b80546122b790613021565b80601f01602080910402602001604051908101604052809291908181526020018280546122e390613021565b80156123305780601f1061230557610100808354040283529160200191612330565b820191906000526020600020905b81548152906001019060200180831161231357829003601f168201915b5050505050905090565b60606000821415612382576040518060400160405280600181526020017f30000000000000000000000000000000000000000000000000000000000000008152509050612496565b600082905060005b600082146123b457808061239d906138b6565b915050600a826123ad9190613a11565b915061238a565b60008167ffffffffffffffff8111156123d0576123cf612b77565b5b6040519080825280601f01601f1916602001820160405280156124025781602001600182028036833780820191505090505b5090505b6000851461248f5760018261241b9190613a42565b9150600a8561242a9190613a76565b6030612436919061336d565b60f81b81838151811061244c5761244b61383a565b5b60200101907effffffffffffffffffffffffffffffffffffffffffffffffffffffffffffff1916908160001a905350600a856124889190613a11565b9450612406565b8093505050505b919050565b50505050565b6000819050919050565b50505050565b600080549050600073ffffffffffffffffffffffffffffffffffffffff168473ffffffffffffffffffffffffffffffffffffffff16141561251e576040517f2e07630000000000000000000000000000000000000000000000000000000000815260040160405180910390fd5b6000831415612559576040517fb562e8dd00000000000000000000000000000000000000000000000000000000815260040160405180910390fd5b612566600085838661249b565b600160406001901b178302600560008673ffffffffffffffffffffffffffffffffffffffff1673ffffffffffffffffffffffffffffffffffffffff1681526020019081526020016000206000828254019250508190555060e16125cb60018514612766565b901b60a042901b6125db866124a1565b1717600460008381526020019081526020016000208190555060008190506000848201905060008673ffffffffffffffffffffffffffffffffffffffff163b146126df575b818673ffffffffffffffffffffffffffffffffffffffff16600073ffffffffffffffffffffffffffffffffffffffff167fddf252ad1be2c89b69c2b068fc378daa952ba7f163c4a11628f55a4df523b3ef60405160405180910390a461268f6000878480600101955087612148565b6126c5576040517fd1a57ed600000000000000000000000000000000000000000000000000000000815260040160405180910390fd5b8082106126205782600054146126da57600080fd5b61274a565b5b818060010192508673ffffffffffffffffffffffffffffffffffffffff16600073ffffffffffffffffffffffffffffffffffffffff167fddf252ad1be2c89b69c2b068fc378daa952ba7f163c4a11628f55a4df523b3ef60405160405180910390a48082106126e0575b81600081905550505061276060008583866124ab565b50505050565b6000819050919050565b82805461277c90613021565b90600052602060002090601f01602090048101928261279e57600085556127e5565b82601f106127b757803560ff19168380011785556127e5565b828001600101855582156127e5579182015b828111156127e45782358255916020019190600101906127c9565b5b5090506127f291906127f6565b5090565b5b8082111561280f5760008160009055506001016127f7565b5090565b6000604051905090565b600080fd5b600080fd5b60007fffffffff0000000000000000000000000000000000000000000000000000000082169050919050565b61285c81612827565b811461286757600080fd5b50565b60008135905061287981612853565b92915050565b6000602082840312156128955761289461281d565b5b60006128a38482850161286a565b91505092915050565b60008115159050919050565b6128c1816128ac565b82525050565b60006020820190506128dc60008301846128b8565b92915050565b600081519050919050565b600082825260208201905092915050565b60005b8381101561291c578082015181840152602081019050612901565b8381111561292b576000848401525b50505050565b6000601f19601f8301169050919050565b600061294d826128e2565b61295781856128ed565b93506129678185602086016128fe565b61297081612931565b840191505092915050565b600060208201905081810360008301526129958184612942565b905092915050565b6000819050919050565b6129b08161299d565b81146129bb57600080fd5b50565b6000813590506129cd816129a7565b92915050565b6000602082840312156129e9576129e861281d565b5b60006129f7848285016129be565b91505092915050565b600073ffffffffffffffffffffffffffffffffffffffff82169050919050565b6000612a2b82612a00565b9050919050565b612a3b81612a20565b82525050565b6000602082019050612a566000830184612a32565b92915050565b612a6581612a20565b8114612a7057600080fd5b50565b600081359050612a8281612a5c565b92915050565b60008060408385031215612a9f57612a9e61281d565b5b6000612aad85828601612a73565b9250506020612abe858286016129be565b9150509250929050565b612ad18161299d565b82525050565b6000602082019050612aec6000830184612ac8565b92915050565b600080600060608486031215612b0b57612b0a61281d565b5b6000612b1986828701612a73565b9350506020612b2a86828701612a73565b9250506040612b3b868287016129be565b9150509250925092565b600060208284031215612b5b57612b5a61281d565b5b6000612b6984828501612a73565b91505092915050565b600080fd5b7f4e487b7100000000000000000000000000000000000000000000000000000000600052604160045260246000fd5b612baf82612931565b810181811067ffffffffffffffff82111715612bce57612bcd612b77565b5b80604052505050565b6000612be1612813565b9050612bed8282612ba6565b919050565b600067ffffffffffffffff821115612c0d57612c0c612b77565b5b602082029050602081019050919050565b600080fd5b6000819050919050565b612c3681612c23565b8114612c4157600080fd5b50565b600081359050612c5381612c2d565b92915050565b6000612c6c612c6784612bf2565b612bd7565b90508083825260208201905060208402830185811115612c8f57612c8e612c1e565b5b835b81811015612cb85780612ca48882612c44565b845260208401935050602081019050612c91565b5050509392505050565b600082601f830112612cd757612cd6612b72565b5b8135612ce7848260208601612c59565b91505092915050565b600060208284031215612d0657612d0561281d565b5b600082013567ffffffffffffffff811115612d2457612d23612822565b5b612d3084828501612cc2565b91505092915050565b612d42816128ac565b8114612d4d57600080fd5b50565b600081359050612d5f81612d39565b92915050565b60008060408385031215612d7c57612d7b61281d565b5b6000612d8a85828601612a73565b9250506020612d9b85828601612d50565b9150509250929050565b600080fd5b60008083601f840112612dc057612dbf612b72565b5b8235905067ffffffffffffffff811115612ddd57612ddc612da5565b5b602083019150836001820283011115612df957612df8612c1e565b5b9250929050565b60008060208385031215612e1757612e1661281d565b5b600083013567ffffffffffffffff811115612e3557612e34612822565b5b612e4185828601612daa565b92509250509250929050565b600080fd5b600067ffffffffffffffff821115612e6d57612e6c612b77565b5b612e7682612931565b9050602081019050919050565b82818337600083830152505050565b6000612ea5612ea084612e52565b612bd7565b905082815260208101848484011115612ec157612ec0612e4d565b5b612ecc848285612e83565b509392505050565b600082601f830112612ee957612ee8612b72565b5b8135612ef9848260208601612e92565b91505092915050565b60008060008060808587031215612f1c57612f1b61281d565b5b6000612f2a87828801612a73565b9450506020612f3b87828801612a73565b9350506040612f4c878288016129be565b925050606085013567ffffffffffffffff811115612f6d57612f6c612822565b5b612f7987828801612ed4565b91505092959194509250565b600060208284031215612f9b57612f9a61281d565b5b6000612fa984828501612c44565b91505092915050565b60008060408385031215612fc957612fc861281d565b5b6000612fd785828601612a73565b9250506020612fe885828601612a73565b9150509250929050565b7f4e487b7100000000000000000000000000000000000000000000000000000000600052602260045260246000fd5b6000600282049050600182168061303957607f821691505b6020821081141561304d5761304c612ff2565b5b50919050565b7f4f776e61626c653a2063616c6c6572206973206e6f7420746865206f776e6572600082015250565b60006130896020836128ed565b915061309482613053565b602082019050919050565b600060208201905081810360008301526130b88161307c565b9050919050565b600081905092915050565b50565b60006130da6000836130bf565b91506130e5826130ca565b600082019050919050565b60006130fb826130cd565b9150819050919050565b7f5265656e7472616e637947756172643a207265656e7472616e742063616c6c00600082015250565b600061313b601f836128ed565b915061314682613105565b602082019050919050565b6000602082019050818103600083015261316a8161312e565b9050919050565b7f596f752063616e74206d696e74207965742e0000000000000000000000000000600082015250565b60006131a76012836128ed565b91506131b282613171565b602082019050919050565b600060208201905081810360008301526131d68161319a565b9050919050565b60008160601b9050919050565b60006131f5826131dd565b9050919050565b6000613207826131ea565b9050919050565b61321f61321a82612a20565b6131fc565b82525050565b6000613231828461320e565b60148201915081905092915050565b7f596f7520617265206e6f742077686974656c6973746564210000000000000000600082015250565b60006132766018836128ed565b915061328182613240565b602082019050919050565b600060208201905081810360008301526132a581613269565b9050919050565b7f596f7527766520616c7265616479206d696e74656420796f757220467265652060008201527f4e46542e00000000000000000000000000000000000000000000000000000000602082015250565b60006133086024836128ed565b9150613313826132ac565b604082019050919050565b60006020820190508181036000830152613337816132fb565b9050919050565b7f4e487b7100000000000000000000000000000000000000000000000000000000600052601160045260246000fd5b60006133788261299d565b91506133838361299d565b9250827fffffffffffffffffffffffffffffffffffffffffffffffffffffffffffffffff038211156133b8576133b761333e565b5b828201905092915050565b7f4d617820737570706c7920666f722046726565206d696e74732068617320626560008201527f656e20726561636865642e000000000000000000000000000000000000000000602082015250565b600061341f602b836128ed565b915061342a826133c3565b604082019050919050565b6000602082019050818103600083015261344e81613412565b9050919050565b7f4552433732314d657461646174613a2055524920717565727920666f72206e6f60008201527f6e6578697374656e7420746f6b656e0000000000000000000000000000000000602082015250565b60006134b1602f836128ed565b91506134bc82613455565b604082019050919050565b600060208201905081810360008301526134e0816134a4565b9050919050565b600081905092915050565b60006134fd826128e2565b61350781856134e7565b93506135178185602086016128fe565b80840191505092915050565b7f2e6a736f6e000000000000000000000000000000000000000000000000000000600082015250565b60006135596005836134e7565b915061356482613523565b600582019050919050565b600061357b82856134f2565b915061358782846134f2565b91506135928261354c565b91508190509392505050565b7f53616c65206861736e7420636f6d6d656e636564207965742e00000000000000600082015250565b60006135d46019836128ed565b91506135df8261359e565b602082019050919050565b60006020820190508181036000830152613603816135c7565b9050919050565b7f4d6178203130207065722054584e2e0000000000000000000000000000000000600082015250565b6000613640600f836128ed565b915061364b8261360a565b602082019050919050565b6000602082019050818103600083015261366f81613633565b9050919050565b7f54686572652773206e6f7420656e6f75676820737570706c79206c6566742e00600082015250565b60006136ac601f836128ed565b91506136b782613676565b602082019050919050565b600060208201905081810360008301526136db8161369f565b9050919050565b60006136ed8261299d565b91506136f88361299d565b9250817fffffffffffffffffffffffffffffffffffffffffffffffffffffffffffffffff04831182151516156137315761373061333e565b5b828202905092915050565b7f4f6e65204c6567656e6420636f73747320302e303037372045746865722e0000600082015250565b6000613772601e836128ed565b915061377d8261373c565b602082019050919050565b600060208201905081810360008301526137a181613765565b9050919050565b7f4f776e61626c653a206e6577206f776e657220697320746865207a65726f206160008201527f6464726573730000000000000000000000000000000000000000000000000000602082015250565b60006138046026836128ed565b915061380f826137a8565b604082019050919050565b60006020820190508181036000830152613833816137f7565b9050919050565b7f4e487b7100000000000000000000000000000000000000000000000000000000600052603260045260246000fd5b6000819050919050565b61388461387f82612c23565b613869565b82525050565b60006138968285613873565b6020820191506138a68284613873565b6020820191508190509392505050565b60006138c18261299d565b91507fffffffffffffffffffffffffffffffffffffffffffffffffffffffffffffffff8214156138f4576138f361333e565b5b600182019050919050565b600081519050919050565b600082825260208201905092915050565b6000613926826138ff565b613930818561390a565b93506139408185602086016128fe565b61394981612931565b840191505092915050565b60006080820190506139696000830187612a32565b6139766020830186612a32565b6139836040830185612ac8565b8181036060830152613995818461391b565b905095945050505050565b6000815190506139af81612853565b92915050565b6000602082840312156139cb576139ca61281d565b5b60006139d9848285016139a0565b91505092915050565b7f4e487b7100000000000000000000000000000000000000000000000000000000600052601260045260246000fd5b6000613a1c8261299d565b9150613a278361299d565b925082613a3757613a366139e2565b5b828204905092915050565b6000613a4d8261299d565b9150613a588361299d565b925082821015613a6b57613a6a61333e565b5b828203905092915050565b6000613a818261299d565b9150613a8c8361299d565b925082613a9c57613a9b6139e2565b5b82820690509291505056fea2646970667358221220984afb4171da289e481d311145575e5373ae603ebfebca033831c23f4263a75b64736f6c63430008090033",
  "linkReferences": {},
  "deployedLinkReferences": {}
}